{
  "_format": "hh-sol-artifact-1",
  "contractName": "Temp",
  "sourceName": "contracts/Temp.sol",
  "abi": [
    {
      "anonymous": false,
      "inputs": [
        {
          "components": [
            {
              "internalType": "string",
              "name": "cid",
              "type": "string"
            },
            {
              "internalType": "string",
              "name": "operation",
              "type": "string"
            }
          ],
          "indexed": false,
          "internalType": "struct Temp.return_data[]",
          "name": "_cid",
          "type": "tuple[]"
        }
      ],
      "name": "getUserDataE",
      "type": "event"
    },
    {
      "anonymous": false,
      "inputs": [
        {
          "indexed": false,
          "internalType": "address[]",
          "name": "_users",
          "type": "address[]"
        }
      ],
      "name": "users",
      "type": "event"
    },
    {
      "inputs": [
        {
          "internalType": "string",
          "name": "cid",
          "type": "string"
        },
        {
          "internalType": "address",
          "name": "requester",
          "type": "address"
        },
        {
          "internalType": "string",
          "name": "operation",
          "type": "string"
        }
      ],
      "name": "accept_request",
      "outputs": [],
      "stateMutability": "nonpayable",
      "type": "function"
    },
    {
      "inputs": [
        {
          "internalType": "string",
          "name": "",
          "type": "string"
        },
        {
          "internalType": "address",
          "name": "",
          "type": "address"
        }
      ],
      "name": "accessPermissions",
      "outputs": [
        {
          "internalType": "bool",
          "name": "valid",
          "type": "bool"
        },
        {
          "internalType": "string",
          "name": "operation",
          "type": "string"
        }
      ],
      "stateMutability": "view",
      "type": "function"
    },
    {
      "inputs": [
        {
          "internalType": "uint256",
          "name": "",
          "type": "uint256"
        }
      ],
      "name": "accounts",
      "outputs": [
        {
          "internalType": "address",
          "name": "",
          "type": "address"
        }
      ],
      "stateMutability": "view",
      "type": "function"
    },
    {
      "inputs": [
        {
          "internalType": "string",
          "name": "_cid",
          "type": "string"
        }
      ],
      "name": "deleteLog",
      "outputs": [],
      "stateMutability": "nonpayable",
      "type": "function"
    },
    {
      "inputs": [
        {
          "internalType": "string",
          "name": "",
          "type": "string"
        }
      ],
      "name": "deletee",
      "outputs": [
        {
          "internalType": "bool",
          "name": "",
          "type": "bool"
        }
      ],
      "stateMutability": "view",
      "type": "function"
    },
    {
      "inputs": [
        {
          "internalType": "string",
          "name": "_cid",
          "type": "string"
        }
      ],
      "name": "getLastAccessor",
      "outputs": [
        {
          "components": [
            {
              "internalType": "address",
              "name": "user",
              "type": "address"
            },
            {
              "internalType": "string",
              "name": "time",
              "type": "string"
            },
            {
              "internalType": "uint256",
              "name": "granted",
              "type": "uint256"
            },
            {
              "internalType": "string",
              "name": "operation",
              "type": "string"
            }
          ],
          "internalType": "struct Temp.Log[]",
          "name": "",
          "type": "tuple[]"
        }
      ],
      "stateMutability": "view",
      "type": "function"
    },
    {
      "inputs": [],
      "name": "getUserCid",
      "outputs": [
        {
          "internalType": "string[]",
          "name": "",
          "type": "string[]"
        }
      ],
      "stateMutability": "view",
      "type": "function"
    },
    {
      "inputs": [
        {
          "internalType": "address",
          "name": "_user",
          "type": "address"
        }
      ],
      "name": "getUserData",
      "outputs": [],
      "stateMutability": "nonpayable",
      "type": "function"
    },
    {
      "inputs": [],
      "name": "getUsers",
      "outputs": [
        {
          "internalType": "address[]",
          "name": "",
          "type": "address[]"
        }
      ],
      "stateMutability": "view",
      "type": "function"
    },
    {
      "inputs": [
        {
          "internalType": "address",
          "name": "_recipient",
          "type": "address"
        },
        {
          "internalType": "string",
          "name": "_operation",
          "type": "string"
        }
      ],
      "name": "grantAccess",
      "outputs": [],
      "stateMutability": "nonpayable",
      "type": "function"
    },
    {
      "inputs": [
        {
          "internalType": "string",
          "name": "",
          "type": "string"
        },
        {
          "internalType": "uint256",
          "name": "",
          "type": "uint256"
        }
      ],
      "name": "lastAccessedBy",
      "outputs": [
        {
          "internalType": "address",
          "name": "user",
          "type": "address"
        },
        {
          "internalType": "string",
          "name": "time",
          "type": "string"
        },
        {
          "internalType": "uint256",
          "name": "granted",
          "type": "uint256"
        },
        {
          "internalType": "string",
          "name": "operation",
          "type": "string"
        }
      ],
      "stateMutability": "view",
      "type": "function"
    },
    {
      "inputs": [
        {
          "internalType": "string",
          "name": "_cid",
          "type": "string"
        },
        {
          "internalType": "string",
          "name": "_operation",
          "type": "string"
        }
      ],
      "name": "requestAccess",
      "outputs": [],
      "stateMutability": "nonpayable",
      "type": "function"
    },
    {
      "inputs": [
        {
          "internalType": "string",
          "name": "",
          "type": "string"
        },
        {
          "internalType": "address",
          "name": "",
          "type": "address"
        }
      ],
      "name": "requests",
      "outputs": [
        {
          "internalType": "string",
          "name": "",
          "type": "string"
        }
      ],
      "stateMutability": "view",
      "type": "function"
    },
    {
      "inputs": [],
      "name": "return_rquests",
      "outputs": [
        {
          "components": [
            {
              "internalType": "address",
              "name": "requester",
              "type": "address"
            },
            {
              "internalType": "string",
              "name": "cid",
              "type": "string"
            },
            {
              "internalType": "string",
              "name": "operation",
              "type": "string"
            }
          ],
          "internalType": "struct Temp.return_req_data[]",
          "name": "",
          "type": "tuple[]"
        }
      ],
      "stateMutability": "view",
      "type": "function"
    },
    {
      "inputs": [
        {
          "internalType": "address",
          "name": "_recipient",
          "type": "address"
        }
      ],
      "name": "revokeAccess",
      "outputs": [],
      "stateMutability": "nonpayable",
      "type": "function"
    },
    {
      "inputs": [
        {
          "internalType": "string",
          "name": "_cid",
          "type": "string"
        },
        {
          "internalType": "address",
          "name": "receiver",
          "type": "address"
        },
        {
          "internalType": "string",
          "name": "_op",
          "type": "string"
        }
      ],
      "name": "setUserData",
      "outputs": [],
      "stateMutability": "nonpayable",
      "type": "function"
    },
    {
      "inputs": [
        {
          "internalType": "string",
          "name": "_cid",
          "type": "string"
        },
        {
          "internalType": "string",
          "name": "_time",
          "type": "string"
        },
        {
          "internalType": "uint256",
          "name": "_granted",
          "type": "uint256"
        },
        {
          "internalType": "string",
          "name": "_op",
          "type": "string"
        }
      ],
      "name": "updateLog",
      "outputs": [],
      "stateMutability": "nonpayable",
      "type": "function"
    },
    {
      "inputs": [
        {
          "internalType": "address",
          "name": "",
          "type": "address"
        },
        {
          "internalType": "uint256",
          "name": "",
          "type": "uint256"
        }
      ],
      "name": "userDatas",
      "outputs": [
        {
          "internalType": "string",
          "name": "",
          "type": "string"
        }
      ],
      "stateMutability": "view",
      "type": "function"
    }
  ],
  "bytecode": "0x608060405234801561001057600080fd5b50613772806100206000396000f3fe608060405234801561001057600080fd5b50600436106101155760003560e01c8063a36b9820116100a2578063e50fe48e11610071578063e50fe48e146102f4578063f2a40db814610310578063f3d2147614610340578063f3e8d2481461035c578063ffc9896b1461038c57610115565b8063a36b98201461026e578063c32464861461028a578063c732a918146102a6578063cc754db6146102d657610115565b80635e43e2a7116100e95780635e43e2a7146101a257806369cc5d04146101d557806381b412391461020557806383842ea21461023657806385e685311461025257610115565b8062ce8e3e1461011a57806316157f6c146101385780633e32bd2a146101545780634cfef79d14610184575b600080fd5b6101226103a8565b60405161012f919061258d565b60405180910390f35b610152600480360381019061014d9190612709565b610436565b005b61016e600480360381019061016991906127e3565b6104a3565b60405161017b91906128a2565b60405180910390f35b61018c61055c565b6040516101999190612a27565b60405180910390f35b6101bc60048036038101906101b79190612a49565b6109fa565b6040516101cc9493929190612ac3565b60405180910390f35b6101ef60048036038101906101ea9190612b16565b610b8d565b6040516101fc9190612c9a565b60405180910390f35b61021f600480360381019061021a9190612cbc565b610d8e565b60405161022d929190612d33565b60405180910390f35b610250600480360381019061024b9190612d63565b610e6a565b005b61026c60048036038101906102679190612dee565b610fb9565b005b61028860048036038101906102839190612d63565b6112ff565b005b6102a4600480360381019061029f9190612b16565b6117c5565b005b6102c060048036038101906102bb9190612b16565b6118e8565b6040516102cd9190612e1b565b60405180910390f35b6102de61191e565b6040516102eb9190612ef8565b60405180910390f35b61030e60048036038101906103099190612f1a565b611a34565b005b61032a60048036038101906103259190612f76565b611d46565b6040516103379190612fa3565b60405180910390f35b61035a60048036038101906103559190612fbe565b611d85565b005b61037660048036038101906103719190612cbc565b611e88565b60405161038391906128a2565b60405180910390f35b6103a660048036038101906103a19190612dee565b611f4b565b005b6060600080548060200260200160405190810160405280929190818152602001828054801561042c57602002820191906000526020600020905b8160009054906101000a900473ffffffffffffffffffffffffffffffffffffffff1673ffffffffffffffffffffffffffffffffffffffff16815260200190600101908083116103e2575b5050505050905090565b8060048360405161044791906130b5565b908152602001604051809103902060003373ffffffffffffffffffffffffffffffffffffffff1673ffffffffffffffffffffffffffffffffffffffff168152602001908152602001600020908161049e91906132d8565b505050565b600160205281600052604060002081815481106104bf57600080fd5b906000526020600020016000915091505080546104db906130fb565b80601f0160208091040260200160405190810160405280929190818152602001828054610507906130fb565b80156105545780601f1061052957610100808354040283529160200191610554565b820191906000526020600020905b81548152906001019060200180831161053757829003601f168201915b505050505081565b60606000600160003373ffffffffffffffffffffffffffffffffffffffff1673ffffffffffffffffffffffffffffffffffffffff168152602001908152602001600020805480602002602001604051908101604052809291908181526020016000905b8282101561066b5783829060005260206000200180546105de906130fb565b80601f016020809104026020016040519081016040528092919081815260200182805461060a906130fb565b80156106575780601f1061062c57610100808354040283529160200191610657565b820191906000526020600020905b81548152906001019060200180831161063a57829003601f168201915b5050505050815260200190600101906105bf565b50505050905060008080549050825161068491906133d9565b67ffffffffffffffff81111561069d5761069c6125de565b5b6040519080825280602002602001820160405280156106d657816020015b6106c36123ef565b8152602001906001900390816106bb5790505b5090506000805b83518110156109f05760005b6000805490508110156109dc57604051806020016040528060008152508051906020012060048684815181106107225761072161341b565b5b602002602001015160405161073791906130b5565b9081526020016040518091039020600080848154811061075a5761075961341b565b5b9060005260206000200160009054906101000a900473ffffffffffffffffffffffffffffffffffffffff1673ffffffffffffffffffffffffffffffffffffffff1673ffffffffffffffffffffffffffffffffffffffff1681526020019081526020016000206040516107cc91906134ed565b6040518091039020146109c9576040518060600160405280600083815481106107f8576107f761341b565b5b9060005260206000200160009054906101000a900473ffffffffffffffffffffffffffffffffffffffff1673ffffffffffffffffffffffffffffffffffffffff1681526020018684815181106108515761085061341b565b5b6020026020010151815260200160048785815181106108735761087261341b565b5b602002602001015160405161088891906130b5565b908152602001604051809103902060008085815481106108ab576108aa61341b565b5b9060005260206000200160009054906101000a900473ffffffffffffffffffffffffffffffffffffffff1673ffffffffffffffffffffffffffffffffffffffff1673ffffffffffffffffffffffffffffffffffffffff168152602001908152602001600020805461091b906130fb565b80601f0160208091040260200160405190810160405280929190818152602001828054610947906130fb565b80156109945780601f1061096957610100808354040283529160200191610994565b820191906000526020600020905b81548152906001019060200180831161097757829003601f168201915b50505050508152508484815181106109af576109ae61341b565b5b602002602001018190525082806109c590613504565b9350505b80806109d490613504565b9150506106e9565b5080806109e890613504565b9150506106dd565b5081935050505090565b6003828051602081018201805184825260208301602085012081835280955050505050508181548110610a2c57600080fd5b9060005260206000209060040201600091509150508060000160009054906101000a900473ffffffffffffffffffffffffffffffffffffffff1690806001018054610a76906130fb565b80601f0160208091040260200160405190810160405280929190818152602001828054610aa2906130fb565b8015610aef5780601f10610ac457610100808354040283529160200191610aef565b820191906000526020600020905b815481529060010190602001808311610ad257829003601f168201915b505050505090806002015490806003018054610b0a906130fb565b80601f0160208091040260200160405190810160405280929190818152602001828054610b36906130fb565b8015610b835780601f10610b5857610100808354040283529160200191610b83565b820191906000526020600020905b815481529060010190602001808311610b6657829003601f168201915b5050505050905084565b6060600382604051610b9f91906130b5565b9081526020016040518091039020805480602002602001604051908101604052809291908181526020016000905b82821015610d8357838290600052602060002090600402016040518060800160405290816000820160009054906101000a900473ffffffffffffffffffffffffffffffffffffffff1673ffffffffffffffffffffffffffffffffffffffff1673ffffffffffffffffffffffffffffffffffffffff168152602001600182018054610c56906130fb565b80601f0160208091040260200160405190810160405280929190818152602001828054610c82906130fb565b8015610ccf5780601f10610ca457610100808354040283529160200191610ccf565b820191906000526020600020905b815481529060010190602001808311610cb257829003601f168201915b5050505050815260200160028201548152602001600382018054610cf2906130fb565b80601f0160208091040260200160405190810160405280929190818152602001828054610d1e906130fb565b8015610d6b5780601f10610d4057610100808354040283529160200191610d6b565b820191906000526020600020905b815481529060010190602001808311610d4e57829003601f168201915b50505050508152505081526020019060010190610bcd565b505050509050919050565b600282805160208101820180518482526020830160208501208183528095505050505050602052806000526040600020600091509150508060000160009054906101000a900460ff1690806001018054610de7906130fb565b80601f0160208091040260200160405190810160405280929190818152602001828054610e13906130fb565b8015610e605780601f10610e3557610100808354040283529160200191610e60565b820191906000526020600020905b815481529060010190602001808311610e4357829003601f168201915b5050505050905082565b6001600284604051610e7c91906130b5565b908152602001604051809103902060008473ffffffffffffffffffffffffffffffffffffffff1673ffffffffffffffffffffffffffffffffffffffff16815260200190815260200160002060000160006101000a81548160ff02191690831515021790555080600284604051610ef291906130b5565b908152602001604051809103902060008473ffffffffffffffffffffffffffffffffffffffff1673ffffffffffffffffffffffffffffffffffffffff1681526020019081526020016000206001019081610f4c91906132d8565b50600483604051610f5d91906130b5565b908152602001604051809103902060008373ffffffffffffffffffffffffffffffffffffffff1673ffffffffffffffffffffffffffffffffffffffff1681526020019081526020016000206000610fb49190612426565b505050565b338073ffffffffffffffffffffffffffffffffffffffff163373ffffffffffffffffffffffffffffffffffffffff1614611028576040517f08c379a000000000000000000000000000000000000000000000000000000000815260040161101f906135be565b60405180910390fd5b6000600160003373ffffffffffffffffffffffffffffffffffffffff1673ffffffffffffffffffffffffffffffffffffffff168152602001908152602001600020805480602002602001604051908101604052809291908181526020016000905b828210156111355783829060005260206000200180546110a8906130fb565b80601f01602080910402602001604051908101604052809291908181526020018280546110d4906130fb565b80156111215780601f106110f657610100808354040283529160200191611121565b820191906000526020600020905b81548152906001019060200180831161110457829003601f168201915b505050505081526020019060010190611089565b50505050905060005b81518110156112f9576001151560058383815181106111605761115f61341b565b5b602002602001015160405161117591906130b5565b908152602001604051809103902060009054906101000a900460ff16151503156112e657600060028383815181106111b0576111af61341b565b5b60200260200101516040516111c591906130b5565b908152602001604051809103902060008673ffffffffffffffffffffffffffffffffffffffff1673ffffffffffffffffffffffffffffffffffffffff16815260200190815260200160002060000160006101000a81548160ff0219169083151502179055506040518060400160405280600181526020017f300000000000000000000000000000000000000000000000000000000000000081525060028383815181106112755761127461341b565b5b602002602001015160405161128a91906130b5565b908152602001604051809103902060008673ffffffffffffffffffffffffffffffffffffffff1673ffffffffffffffffffffffffffffffffffffffff16815260200190815260200160002060010190816112e491906132d8565b505b80806112f190613504565b91505061113e565b50505050565b6000600160003373ffffffffffffffffffffffffffffffffffffffff1673ffffffffffffffffffffffffffffffffffffffff16815260200190815260200160002080549050036113ad576000339080600181540180825580915050600190039060005260206000200160009091909190916101000a81548173ffffffffffffffffffffffffffffffffffffffff021916908373ffffffffffffffffffffffffffffffffffffffff1602179055505b6000805b6000805490508160ff161015611451578373ffffffffffffffffffffffffffffffffffffffff1660008260ff16815481106113ef576113ee61341b565b5b9060005260206000200160009054906101000a900473ffffffffffffffffffffffffffffffffffffffff1673ffffffffffffffffffffffffffffffffffffffff160361143e5760019150611451565b8080611449906135eb565b9150506113b1565b5060001515811515036114c2576000839080600181540180825580915050600190039060005260206000200160009091909190916101000a81548173ffffffffffffffffffffffffffffffffffffffff021916908373ffffffffffffffffffffffffffffffffffffffff1602179055505b6000905060005b600160003373ffffffffffffffffffffffffffffffffffffffff1673ffffffffffffffffffffffffffffffffffffffff168152602001908152602001600020805490508160ff1610156115b2578480519060200120600160003373ffffffffffffffffffffffffffffffffffffffff1673ffffffffffffffffffffffffffffffffffffffff1681526020019081526020016000208260ff16815481106115725761157161341b565b5b9060005260206000200160405161158991906134ed565b60405180910390200361159f57600191506115b2565b80806115aa906135eb565b9150506114c9565b50600015158115150361163257600160003373ffffffffffffffffffffffffffffffffffffffff1673ffffffffffffffffffffffffffffffffffffffff1681526020019081526020016000208490806001815401808255809150506001900390600052602060002001600090919091909150908161163091906132d8565b505b60405180604001604052806001151581526020018381525060028560405161165a91906130b5565b908152602001604051809103902060008573ffffffffffffffffffffffffffffffffffffffff1673ffffffffffffffffffffffffffffffffffffffff16815260200190815260200160002060008201518160000160006101000a81548160ff02191690831515021790555060208201518160010190816116da91906132d8565b5090505060405180604001604052806001151581526020016040518060400160405280600181526020017f330000000000000000000000000000000000000000000000000000000000000081525081525060028560405161173b91906130b5565b908152602001604051809103902060003373ffffffffffffffffffffffffffffffffffffffff1673ffffffffffffffffffffffffffffffffffffffff16815260200190815260200160002060008201518160000160006101000a81548160ff02191690831515021790555060208201518160010190816117bb91906132d8565b5090505050505050565b60005b6000805490508160ff1610156118e4576002826040516117e891906130b5565b90815260200160405180910390206000808360ff168154811061180e5761180d61341b565b5b9060005260206000200160009054906101000a900473ffffffffffffffffffffffffffffffffffffffff1673ffffffffffffffffffffffffffffffffffffffff1673ffffffffffffffffffffffffffffffffffffffff168152602001908152602001600020600080820160006101000a81549060ff02191690556001820160006118989190612426565b505060016005836040516118ac91906130b5565b908152602001604051809103902060006101000a81548160ff02191690831515021790555080806118dc906135eb565b9150506117c8565b5050565b6005818051602081018201805184825260208301602085012081835280955050505050506000915054906101000a900460ff1681565b6060600160003373ffffffffffffffffffffffffffffffffffffffff1673ffffffffffffffffffffffffffffffffffffffff168152602001908152602001600020805480602002602001604051908101604052809291908181526020016000905b82821015611a2b57838290600052602060002001805461199e906130fb565b80601f01602080910402602001604051908101604052809291908181526020018280546119ca906130fb565b8015611a175780601f106119ec57610100808354040283529160200191611a17565b820191906000526020600020905b8154815290600101906020018083116119fa57829003601f168201915b50505050508152602001906001019061197f565b50505050905090565b338073ffffffffffffffffffffffffffffffffffffffff163373ffffffffffffffffffffffffffffffffffffffff1614611aa3576040517f08c379a0000000000000000000000000000000000000000000000000000000008152600401611a9a906135be565b60405180910390fd5b6000600160003373ffffffffffffffffffffffffffffffffffffffff1673ffffffffffffffffffffffffffffffffffffffff168152602001908152602001600020805480602002602001604051908101604052809291908181526020016000905b82821015611bb0578382906000526020600020018054611b23906130fb565b80601f0160208091040260200160405190810160405280929190818152602001828054611b4f906130fb565b8015611b9c5780601f10611b7157610100808354040283529160200191611b9c565b820191906000526020600020905b815481529060010190602001808311611b7f57829003601f168201915b505050505081526020019060010190611b04565b50505050905060005b8151811015611d3f57600115156005838381518110611bdb57611bda61341b565b5b6020026020010151604051611bf091906130b5565b908152602001604051809103902060009054906101000a900460ff1615150315611d2c5760016002838381518110611c2b57611c2a61341b565b5b6020026020010151604051611c4091906130b5565b908152602001604051809103902060008773ffffffffffffffffffffffffffffffffffffffff1673ffffffffffffffffffffffffffffffffffffffff16815260200190815260200160002060000160006101000a81548160ff021916908315150217905550836002838381518110611cbb57611cba61341b565b5b6020026020010151604051611cd091906130b5565b908152602001604051809103902060008773ffffffffffffffffffffffffffffffffffffffff1673ffffffffffffffffffffffffffffffffffffffff1681526020019081526020016000206001019081611d2a91906132d8565b505b8080611d3790613504565b915050611bb9565b5050505050565b60008181548110611d5657600080fd5b906000526020600020016000915054906101000a900473ffffffffffffffffffffffffffffffffffffffff1681565b600384604051611d9591906130b5565b908152602001604051809103902060405180608001604052803373ffffffffffffffffffffffffffffffffffffffff16815260200185815260200184815260200183815250908060018154018082558091505060019003906000526020600020906004020160009091909190915060008201518160000160006101000a81548173ffffffffffffffffffffffffffffffffffffffff021916908373ffffffffffffffffffffffffffffffffffffffff1602179055506020820151816001019081611e5f91906132d8565b50604082015181600201556060820151816003019081611e7f91906132d8565b50505050505050565b600482805160208101820180518482526020830160208501208183528095505050505050602052806000526040600020600091509150508054611eca906130fb565b80601f0160208091040260200160405190810160405280929190818152602001828054611ef6906130fb565b8015611f435780601f10611f1857610100808354040283529160200191611f43565b820191906000526020600020905b815481529060010190602001808311611f2657829003601f168201915b505050505081565b6000600160008373ffffffffffffffffffffffffffffffffffffffff1673ffffffffffffffffffffffffffffffffffffffff168152602001908152602001600020805480602002602001604051908101604052809291908181526020016000905b82821015612058578382906000526020600020018054611fcb906130fb565b80601f0160208091040260200160405190810160405280929190818152602001828054611ff7906130fb565b80156120445780601f1061201957610100808354040283529160200191612044565b820191906000526020600020905b81548152906001019060200180831161202757829003601f168201915b505050505081526020019060010190611fac565b5050505090506000815167ffffffffffffffff81111561207b5761207a6125de565b5b6040519080825280602002602001820160405280156120b457816020015b6120a1612466565b8152602001906001900390816120995790505b5090506000805b83518110156123b1576001151560028583815181106120dd576120dc61341b565b5b60200260200101516040516120f291906130b5565b908152602001604051809103902060003373ffffffffffffffffffffffffffffffffffffffff1673ffffffffffffffffffffffffffffffffffffffff16815260200190815260200160002060000160009054906101000a900460ff161515036122bb576000600285838151811061216c5761216b61341b565b5b602002602001015160405161218191906130b5565b908152602001604051809103902060003373ffffffffffffffffffffffffffffffffffffffff1673ffffffffffffffffffffffffffffffffffffffff16815260200190815260200160002060010180546121da906130fb565b80601f0160208091040260200160405190810160405280929190818152602001828054612206906130fb565b80156122535780601f1061222857610100808354040283529160200191612253565b820191906000526020600020905b81548152906001019060200180831161223657829003601f168201915b5050505050905060405180604001604052808684815181106122785761227761341b565b5b602002602001015181526020018281525084848151811061229c5761229b61341b565b5b602002602001018190525082806122b290613504565b9350505061239e565b6001151560058583815181106122d4576122d361341b565b5b60200260200101516040516122e991906130b5565b908152602001604051809103902060009054906101000a900460ff1615151461239d57604051806040016040528085838151811061232a5761232961341b565b5b602002602001015181526020016040518060400160405280600181526020017f30000000000000000000000000000000000000000000000000000000000000008152508152508383815181106123835761238261341b565b5b6020026020010181905250818061239990613504565b9250505b5b80806123a990613504565b9150506120bb565b507f24db20584389b874b05b35c19ae4a9a839ae661d043a1943f0c7ebfbb23aa5ec826040516123e1919061371a565b60405180910390a150505050565b6040518060600160405280600073ffffffffffffffffffffffffffffffffffffffff16815260200160608152602001606081525090565b508054612432906130fb565b6000825580601f106124445750612463565b601f0160209004906000526020600020908101906124629190612480565b5b50565b604051806040016040528060608152602001606081525090565b5b80821115612499576000816000905550600101612481565b5090565b600081519050919050565b600082825260208201905092915050565b6000819050602082019050919050565b600073ffffffffffffffffffffffffffffffffffffffff82169050919050565b60006124f4826124c9565b9050919050565b612504816124e9565b82525050565b600061251683836124fb565b60208301905092915050565b6000602082019050919050565b600061253a8261249d565b61254481856124a8565b935061254f836124b9565b8060005b83811015612580578151612567888261250a565b975061257283612522565b925050600181019050612553565b5085935050505092915050565b600060208201905081810360008301526125a7818461252f565b905092915050565b6000604051905090565b600080fd5b600080fd5b600080fd5b600080fd5b6000601f19601f8301169050919050565b7f4e487b7100000000000000000000000000000000000000000000000000000000600052604160045260246000fd5b612616826125cd565b810181811067ffffffffffffffff82111715612635576126346125de565b5b80604052505050565b60006126486125af565b9050612654828261260d565b919050565b600067ffffffffffffffff821115612674576126736125de565b5b61267d826125cd565b9050602081019050919050565b82818337600083830152505050565b60006126ac6126a784612659565b61263e565b9050828152602081018484840111156126c8576126c76125c8565b5b6126d384828561268a565b509392505050565b600082601f8301126126f0576126ef6125c3565b5b8135612700848260208601612699565b91505092915050565b600080604083850312156127205761271f6125b9565b5b600083013567ffffffffffffffff81111561273e5761273d6125be565b5b61274a858286016126db565b925050602083013567ffffffffffffffff81111561276b5761276a6125be565b5b612777858286016126db565b9150509250929050565b61278a816124e9565b811461279557600080fd5b50565b6000813590506127a781612781565b92915050565b6000819050919050565b6127c0816127ad565b81146127cb57600080fd5b50565b6000813590506127dd816127b7565b92915050565b600080604083850312156127fa576127f96125b9565b5b600061280885828601612798565b9250506020612819858286016127ce565b9150509250929050565b600081519050919050565b600082825260208201905092915050565b60005b8381101561285d578082015181840152602081019050612842565b60008484015250505050565b600061287482612823565b61287e818561282e565b935061288e81856020860161283f565b612897816125cd565b840191505092915050565b600060208201905081810360008301526128bc8184612869565b905092915050565b600081519050919050565b600082825260208201905092915050565b6000819050602082019050919050565b600082825260208201905092915050565b600061290c82612823565b61291681856128f0565b935061292681856020860161283f565b61292f816125cd565b840191505092915050565b600060608301600083015161295260008601826124fb565b506020830151848203602086015261296a8282612901565b915050604083015184820360408601526129848282612901565b9150508091505092915050565b600061299d838361293a565b905092915050565b6000602082019050919050565b60006129bd826128c4565b6129c781856128cf565b9350836020820285016129d9856128e0565b8060005b85811015612a1557848403895281516129f68582612991565b9450612a01836129a5565b925060208a019950506001810190506129dd565b50829750879550505050505092915050565b60006020820190508181036000830152612a4181846129b2565b905092915050565b60008060408385031215612a6057612a5f6125b9565b5b600083013567ffffffffffffffff811115612a7e57612a7d6125be565b5b612a8a858286016126db565b9250506020612a9b858286016127ce565b9150509250929050565b612aae816124e9565b82525050565b612abd816127ad565b82525050565b6000608082019050612ad86000830187612aa5565b8181036020830152612aea8186612869565b9050612af96040830185612ab4565b8181036060830152612b0b8184612869565b905095945050505050565b600060208284031215612b2c57612b2b6125b9565b5b600082013567ffffffffffffffff811115612b4a57612b496125be565b5b612b56848285016126db565b91505092915050565b600081519050919050565b600082825260208201905092915050565b6000819050602082019050919050565b612b94816127ad565b82525050565b6000608083016000830151612bb260008601826124fb565b5060208301518482036020860152612bca8282612901565b9150506040830151612bdf6040860182612b8b565b5060608301518482036060860152612bf78282612901565b9150508091505092915050565b6000612c108383612b9a565b905092915050565b6000602082019050919050565b6000612c3082612b5f565b612c3a8185612b6a565b935083602082028501612c4c85612b7b565b8060005b85811015612c885784840389528151612c698582612c04565b9450612c7483612c18565b925060208a01995050600181019050612c50565b50829750879550505050505092915050565b60006020820190508181036000830152612cb48184612c25565b905092915050565b60008060408385031215612cd357612cd26125b9565b5b600083013567ffffffffffffffff811115612cf157612cf06125be565b5b612cfd858286016126db565b9250506020612d0e85828601612798565b9150509250929050565b60008115159050919050565b612d2d81612d18565b82525050565b6000604082019050612d486000830185612d24565b8181036020830152612d5a8184612869565b90509392505050565b600080600060608486031215612d7c57612d7b6125b9565b5b600084013567ffffffffffffffff811115612d9a57612d996125be565b5b612da6868287016126db565b9350506020612db786828701612798565b925050604084013567ffffffffffffffff811115612dd857612dd76125be565b5b612de4868287016126db565b9150509250925092565b600060208284031215612e0457612e036125b9565b5b6000612e1284828501612798565b91505092915050565b6000602082019050612e306000830184612d24565b92915050565b600081519050919050565b600082825260208201905092915050565b6000819050602082019050919050565b6000612e6e8383612901565b905092915050565b6000602082019050919050565b6000612e8e82612e36565b612e988185612e41565b935083602082028501612eaa85612e52565b8060005b85811015612ee65784840389528151612ec78582612e62565b9450612ed283612e76565b925060208a01995050600181019050612eae565b50829750879550505050505092915050565b60006020820190508181036000830152612f128184612e83565b905092915050565b60008060408385031215612f3157612f306125b9565b5b6000612f3f85828601612798565b925050602083013567ffffffffffffffff811115612f6057612f5f6125be565b5b612f6c858286016126db565b9150509250929050565b600060208284031215612f8c57612f8b6125b9565b5b6000612f9a848285016127ce565b91505092915050565b6000602082019050612fb86000830184612aa5565b92915050565b60008060008060808587031215612fd857612fd76125b9565b5b600085013567ffffffffffffffff811115612ff657612ff56125be565b5b613002878288016126db565b945050602085013567ffffffffffffffff811115613023576130226125be565b5b61302f878288016126db565b9350506040613040878288016127ce565b925050606085013567ffffffffffffffff811115613061576130606125be565b5b61306d878288016126db565b91505092959194509250565b600081905092915050565b600061308f82612823565b6130998185613079565b93506130a981856020860161283f565b80840191505092915050565b60006130c18284613084565b915081905092915050565b7f4e487b7100000000000000000000000000000000000000000000000000000000600052602260045260246000fd5b6000600282049050600182168061311357607f821691505b602082108103613126576131256130cc565b5b50919050565b60008190508160005260206000209050919050565b60006020601f8301049050919050565b600082821b905092915050565b60006008830261318e7fffffffffffffffffffffffffffffffffffffffffffffffffffffffffffffffff82613151565b6131988683613151565b95508019841693508086168417925050509392505050565b6000819050919050565b60006131d56131d06131cb846127ad565b6131b0565b6127ad565b9050919050565b6000819050919050565b6131ef836131ba565b6132036131fb826131dc565b84845461315e565b825550505050565b600090565b61321861320b565b6132238184846131e6565b505050565b5b818110156132475761323c600082613210565b600181019050613229565b5050565b601f82111561328c5761325d8161312c565b61326684613141565b81016020851015613275578190505b61328961328185613141565b830182613228565b50505b505050565b600082821c905092915050565b60006132af60001984600802613291565b1980831691505092915050565b60006132c8838361329e565b9150826002028217905092915050565b6132e182612823565b67ffffffffffffffff8111156132fa576132f96125de565b5b61330482546130fb565b61330f82828561324b565b600060209050601f8311600181146133425760008415613330578287015190505b61333a85826132bc565b8655506133a2565b601f1984166133508661312c565b60005b8281101561337857848901518255600182019150602085019450602081019050613353565b868310156133955784890151613391601f89168261329e565b8355505b6001600288020188555050505b505050505050565b7f4e487b7100000000000000000000000000000000000000000000000000000000600052601160045260246000fd5b60006133e4826127ad565b91506133ef836127ad565b92508282026133fd816127ad565b91508282048414831517613414576134136133aa565b5b5092915050565b7f4e487b7100000000000000000000000000000000000000000000000000000000600052603260045260246000fd5b600081905092915050565b60008190508160005260206000209050919050565b60008154613477816130fb565b613481818661344a565b9450600182166000811461349c57600181146134b1576134e4565b60ff19831686528115158202860193506134e4565b6134ba85613455565b60005b838110156134dc578154818901526001820191506020810190506134bd565b838801955050505b50505092915050565b60006134f9828461346a565b915081905092915050565b600061350f826127ad565b91507fffffffffffffffffffffffffffffffffffffffffffffffffffffffffffffffff8203613541576135406133aa565b5b600182019050919050565b7f4f6e6c792074686520757365722063616e2063616c6c20746869732066756e6360008201527f74696f6e00000000000000000000000000000000000000000000000000000000602082015250565b60006135a860248361282e565b91506135b38261354c565b604082019050919050565b600060208201905081810360008301526135d78161359b565b9050919050565b600060ff82169050919050565b60006135f6826135de565b915060ff8203613609576136086133aa565b5b600182019050919050565b600081519050919050565b600082825260208201905092915050565b6000819050602082019050919050565b6000604083016000830151848203600086015261365d8282612901565b915050602083015184820360208601526136778282612901565b9150508091505092915050565b60006136908383613640565b905092915050565b6000602082019050919050565b60006136b082613614565b6136ba818561361f565b9350836020820285016136cc85613630565b8060005b8581101561370857848403895281516136e98582613684565b94506136f483613698565b925060208a019950506001810190506136d0565b50829750879550505050505092915050565b6000602082019050818103600083015261373481846136a5565b90509291505056fea2646970667358221220cd23f656ff558b7fef4ed1c9d42c9784f7498355fa0aeb2465034c65e659c1f564736f6c63430008130033",
  "linkReferences": {},
  "deployedLinkReferences": {}
}